:100000000C943A000C9457000C9457000C94570031
:100010000C9457000C9457000C9457000C94570004
:100020000C9457000C9457000C9457000C945700F4
:100030000C9457000C9457000C9457000C945700E4
:100040000C9457000C9457000C9457000C945700D4
:100050000C9457000C9457000C9457000C945700C4
:100060000C9457000C9457006364696E6F7073753D
:1000700078585B0011241FBECFEFD8E0DEBFCDBFA4
:1000800011E0A0E0B1E0EEE4FEE002C005900D92C8
:10009000A034B107D9F711E0A0E4B1E001C01D928E
:1000A000A634B107E1F70E94C8000C9425070C9410
:1000B0000000CF93DF9300D01F92CDB7DEB78983C6
:1000C0007B836A8389818A3031F48A819B81BC0178
:1000D0008DE00E94590080EC90E0FC018081882F27
:1000E00090E0807299270097B1F386EC90E0298127
:1000F000FC0120830F900F900F90DF91CF91089516
:10010000CF93DF9300D01F92CDB7DEB789837B8377
:100110006A8380EC90E0FC0180818823D4F786EC30
:1001200090E0FC0180810F900F900F90DF91CF91B4
:100130000895CF93DF93CDB7DEB785EC90E0FC0157
:10014000108284EC90E027E6FC01208380EC90E0B4
:1001500020EC30E0F90120812D7FFC01208382EC2E
:1001600090E026E0FC01208381EC90E028E1FC0196
:1001700020838EE091E0909341018093400180E0E4
:1001800091E09093430180934201DF91CF910895D4
:10019000CF93DF9300D0CDB7DEB70E9499008CE1FA
:1001A00091E00E940F01CE010196892F8F93CE011D
:1001B00001968F9381E291E0892F8F9381E291E004
:1001C0008F930E943F010F900F900F900F9085E248
:1001D00091E0892F8F9385E291E08F930E94F9003F
:1001E0000F900F9080E090E00F900F90DF91CF91F3
:1001F0000895A0E0B0E0EFEFF0E00C94FE06AE0151
:100200004B5F5F4FFA0161917191AF0180914201A3
:10021000909143010E945501E2E00C941A070F935C
:100220001F93CF93DF93E0914201F091430123812B
:1002300021FF1BC08C01D0E0C0E0F80181918F014B
:100240006091420170914301DB011896ED91FC91A0
:100250001997882331F00995892B79F3DFEFCFEFD8
:10026000ECCF8AE00995892B19F08FEF9FEF02C040
:100270008D2F9C2FDF91CF911F910F910895A0E0BA
:10028000B0E0E5E4F1E00C94FE06AE014B5F5F4F99
:10029000FA0161917191AF0180914001909141010A
:1002A0000E94A704E2E00C941A07ACE0B0E0EBE592
:1002B000F1E00C94EE067C016B018A01FC011782CF
:1002C0001682838181FFBDC1CE0101964C01F701E9
:1002D0009381F60193FD859193FF81916F018823AE
:1002E00009F4ABC1853239F493FD859193FF819177
:1002F0006F01853229F4B70190E00E943C06E7CFF8
:10030000512C312C20E02032A0F48B3269F030F4F3
:10031000803259F0833269F420612CC08D3239F07B
:10032000803339F4216026C02260246023C0286015
:1003300021C027FD27C030ED380F3A3078F426FF72
:1003400006C0FAE05F9E300D1124532E13C08AE0E0
:10035000389E300D1124332E20620CC08E3221F4D1
:1003600026FD6BC1206406C08C3611F4206802C0E3
:10037000883641F4F60193FD859193FF81916F01D9
:100380008111C1CF982F9F7D9554933028F40C5F35
:100390001F4FFFE3F9830DC0833631F0833771F0CF
:1003A000833509F05BC022C0F801808189830E5F2C
:1003B0001F4F44244394512C540115C03801F2E0DE
:1003C0006F0E711CF801A080B18026FF03C0652D5F
:1003D00070E002C06FEF7FEFC5012C870E94F3052C
:1003E0002C0183012C852F77222E17C03801F2E0D3
:1003F0006F0E711CF801A080B18026FF03C0652D2F
:1004000070E002C06FEF7FEFC5012C870E94E80506
:100410002C012C852068222E830123FC1BC0832DF8
:1004200090E048165906B0F4B70180E290E00E94CF
:100430003C063A94F4CFF50127FC859127FE819183
:100440005F01B70190E00E943C0631103A94F1E060
:100450004F1A51084114510471F7E5C0843611F068
:10046000893639F5F80127FF07C0608171818281E3
:1004700093810C5F1F4F08C060817181882777FDD1
:100480008095982F0E5F1F4F2F76722E97FF09C011
:1004900090958095709561957F4F8F4F9F4F206805
:1004A000722E2AE030E0A4010E948D06A82EA81822
:1004B00044C0853729F42F7EB22E2AE030E025C0D3
:1004C000F22FF97FBF2E8F36C1F018F4883579F0FE
:1004D000B4C0803719F0883721F0AFC02F2F2061CA
:1004E000B22EB4FE0DC08B2D8460B82E09C024FF3F
:1004F0000AC09F2F9660B92E06C028E030E005C0E4
:1005000020E130E002C020E132E0F801B7FE07C090
:1005100060817181828193810C5F1F4F06C0608171
:10052000718180E090E00E5F1F4FA4010E948D0654
:10053000A82EA818FB2DFF777F2E76FE0BC0372D37
:100540003E7FA51450F474FE0AC072FC08C0372D1B
:100550003E7E05C0BA2C372D03C0BA2C01C0B52C85
:1005600034FF0DC0FE01EA0DF11D8081803311F4CE
:10057000397E09C032FF06C0B394B39404C0832F00
:10058000867809F0B39433FD13C030FF06C05A2CAF
:10059000B31418F4530C5B18B32CB31468F4B701FC
:1005A00080E290E03C870E943C06B3943C85F5CF06
:1005B000B31410F43B1801C0312C34FF12C0B70142
:1005C00080E390E03C870E943C063C8532FF17C0E8
:1005D00031FD03C088E790E002C088E590E0B701F4
:1005E0000CC0832F867859F031FF02C08BE201C026
:1005F00080E237FD8DE2B70190E00E943C06A51431
:1006000038F4B70180E390E00E943C065A94F7CF9B
:10061000AA94F401EA0DF11D8081B70190E00E94D7
:100620003C06A110F5CF332009F451CEB70180E28A
:1006300090E00E943C063A94F6CFF70186819781BC
:1006400002C08FEF9FEF2C96E2E10C940A0720FD89
:1006500009C0FC0123FD05C022FF02C07383628331
:1006600051834083089544FD10C046FD10C0DB0156
:10067000FC01AA0FBB1FEE1FFF1F1094D1F76A0FDA
:100680007B1F8E1F9F1F31E003C033E001C034E0A9
:10069000660F771F881F991F3150D1F7620F711DA8
:1006A000811D911D08950F931F93CF93DF938C01AC
:1006B000C8010E94FE05EC0197FD08C00E94D50507
:1006C000892BB1F7B801CE010E947406CE01DF91EB
:1006D000CF911F910F910895A1E0B0E0E2E7F3E020
:1006E0000C94F4068C01C62E7A0129830E94FE0523
:1006F000AC01552729814B32510521F04D3251056E
:1007000069F42068CA94C11002C080E076C0C801B4
:1007100029830E94FE05298197FDF7CF322F3D7F67
:10072000D32E322F307349F5803339F5BB24BA9478
:10073000BC0C09F44EC0C80129830E94FE05298122
:1007400097FD47C0382F3F7D383569F48D2D826481
:10075000D82ECA94CA94CC20E1F1C8010E94FE05AB
:1007600097FF0BC036C026FF04C02D2D2260D22E6D
:1007700003C03D2D3261D32ECB2C812C912C540102
:1007800020ED280F283080F0D4FE04C0B8010E946C
:1007900074061CC02A3040F0D6FEF8CF2F7D3FEE05
:1007A000320F363098F727504D2DC501B4010E9405
:1007B00033034B015C018D2D8260D82ECA94CC206E
:1007C00059F0C8010E94FE0597FFDACFD1FC04C0A2
:1007D0009CCF812C912C5401D7FE08C0B094A094DA
:1007E00090948094811C911CA11CB11C2D2DB501ED
:1007F000A401C7010E94270381E02196ECE00C943C
:100800001007A1E2B0E0E7E0F4E00C94F2065C012E
:100810007A01CE0101966C0180E2F60111928A956F
:10082000E9F7F501838040E050E0912C712C70E0F5
:10083000A1E0B0E0F90183FC859183FE81918F01F5
:10084000982F9F01811103C080E090E07CC08E351D
:1008500019F44115510549F1E72FF0E0E417F507C8
:100860003CF48D3559F18D3219F4772001F103C034
:10087000711001C0982E892F8695869586958601E0
:10088000080F111D892F87703D0101C0660C8A95E4
:10089000EAF7F801808186298083991559F0991526
:1008A00010F49F5FE8CF9150E6CF71E004C0772449
:1008B000739401C0712C4F5F5F4FBCCF772019F04C
:1008C0008E8180628E83711103C09924939416C027
:1008D000F6019E012F5D3F4F808180958193E21745
:1008E000F307D1F7F2CFE114F10429F0F701808387
:1008F000C70101967C016150912CF9F0C50169A3F3
:100900000E94FE0569A197FD16C0282F2695269501
:100910002695F601E20FF11D208130E0AC01477011
:10092000552702C0359527954A95E2F720FDDBCF84
:10093000B5010E947406911087CFE114F10411F003
:10094000F7011082C801A196EEE00C940E074F92B9
:100950005F927F928F929F92AF92BF92CF92DF92DF
:10096000EF92FF920F931F93CF93DF931F92CDB718
:10097000DEB76C012B015A01FC0117821682712C23
:10098000F601F380F201F3FC8591F3FE8191382F9B
:100990002F01882309F4F3C090E039830E94D50524
:1009A0003981892B21F0C6010E945303E9CF3532EA
:1009B00041F4F201F3FC3591F3FE31912F01353210
:1009C00069F4C60139830E94FE05398197FDD5C0BF
:1009D0003817B1F2B6010E947406D1C03A3239F428
:1009E000F3FC3591F3FE31912F0151E001C050E04D
:1009F000420110E020ED230F2A3090F45260612F65
:100A000070E080E090E040E259830E943303162FAB
:100A1000F401F3FC3591F3FE31914F015981EACF96
:100A2000052F232F240151FF03C0111102C0A7C0BD
:100A30001FEF383619F03C3659F011C0F401F3FCC1
:100A40002591F3FE21912F01283649F4052F0860E6
:100A50000460F201F3FC2591F3FE21912F01222382
:100A600009F48DC0622F70E088E690E029830E942F
:100A7000DD052981892B09F482C000FD07C0F5013D
:100A8000E080F180C50102965C0102C0E12CF12CEE
:100A90002E3651F4F6014681578160E070E0202F38
:100AA000C7010E9427036CCF233691F401FF11E0A8
:100AB000C6010E94FE0597FD60C0E114F10429F013
:100AC000F7018083C70101967C01115089F751C05D
:100AD0002B3559F49201A701612FC6010E94010430
:100AE0002C01009709F045C03FC0C60129830E9430
:100AF0005303298197FD41C02F3659F128F424363C
:100B000031F1293649F127C0233769F02537F9F04B
:100B100022C0E114F10429F0F7018082C701019697
:100B20007C01115071F0C6010E94FE054C0197FD39
:100B300008C00E94D505892B61F3B601C4010E944B
:100B40007406E114F104A9F0F701108212C00062EA
:100B500003C0006101C00064202FA701612FC601FE
:100B60000E946C03811105C0F6018381807329F412
:100B700006C000FD05CF739403CF772019F0872DB1
:100B800090E002C08FEF9FEF0F90DF91CF911F9108
:100B90000F91FF90EF90DF90CF90BF90AF909F901C
:100BA0008F907F905F904F900895911114C1803283
:100BB00019F089508550D0F70895FC01059006166C
:100BC00021F00020D9F7C00108953197CF01089591
:100BD000FC010590615070400110D8F78095909508
:100BE0008E0F9F1F0895FC0161507040019001100D
:100BF000D8F7809590958E0F9F1F0895CF93DF9320
:100C0000EC012B8120FF33C026FF0AC02F7B2B83F2
:100C10008E819F8101969F838E838A8190E029C077
:100C200022FF0FC0E881F9818081992787FD909587
:100C3000009719F420622B831AC03196F983E88358
:100C40000EC0EA85FB85099597FF09C02B810196A7
:100C500011F080E201C080E1822B8B8308C02E81DD
:100C60003F812F5F3F4F3F832E83992702C08FEF35
:100C70009FEFDF91CF9108950F931F93CF93DF9351
:100C8000FB01238121FD03C08FEF9FEF28C022FFCE
:100C900016C046815781248135814217530744F499
:100CA000A081B1819D012F5F3F4F318320838C93C1
:100CB000268137812F5F3F4F3783268310C0EB019A
:100CC000092F182F0084F185E02D0995892BE1F675
:100CD0008E819F8101969F838E83812F902FDF913C
:100CE000CF911F910F910895FB01238120FF12C026
:100CF00026FD10C08F3F3FEF930761F082832F7D69
:100D0000206423832681378121503109378326834C
:100D1000992708958FEF9FEF0895FA01AA272830A9
:100D200051F1203181F1E8946F936E7F6E5F7F4FB8
:100D30008F4F9F4FAF4FB1E03ED0B4E03CD0670F34
:100D4000781F891F9A1FA11D680F791F8A1F911D87
:100D5000A11D6A0F711D811D911DA11D20D009F4D7
:100D600068943F912AE0269F11243019305D319319
:100D7000DEF6CF010895462F4770405D4193B3E002
:100D80000FD0C9F7F6CF462F4F70405D4A3318F0A9
:100D9000495D31FD4052419302D0A9F7EACFB4E05A
:100DA000A6959795879577956795BA95C9F7009712
:100DB0006105710508959B01AC010A2E06945795B3
:100DC000479537952795BA95C9F7620F731F841F0A
:100DD000951FA01D08959927882708952F923F9267
:100DE0004F925F926F927F928F929F92AF92BF923B
:100DF000CF92DF92EF92FF920F931F93CF93DF93E7
:100E0000CDB7DEB7CA1BDB0B0FB6F894DEBF0FBE43
:100E1000CDBF09942A88398848885F846E847D8490
:100E20008C849B84AA84B984C884DF80EE80FD8092
:100E30000C811B81AA81B981CE0FD11D0FB6F89408
:0E0E4000DEBF0FBECDBFED010895F894FFCFC9
:100E4E000000000200000000590000000000000039
:100E5E000001000000000000800000007465737443
:100E6E000025640A0025642069732061206E756D6B
:100E7E006265722070726F6261626C793F0A000067
:00000001FF
